{
  "_format": "hh-sol-artifact-1",
  "contractName": "TestUniswapLiquidity",
  "sourceName": "contracts/liquidity.sol",
  "abi": [
    {
      "anonymous": false,
      "inputs": [
        {
          "indexed": false,
          "internalType": "string",
          "name": "message",
          "type": "string"
        },
        {
          "indexed": false,
          "internalType": "uint256",
          "name": "val",
          "type": "uint256"
        }
      ],
      "name": "Log",
      "type": "event"
    },
    {
      "inputs": [
        {
          "internalType": "address",
          "name": "_tokenA",
          "type": "address"
        },
        {
          "internalType": "address",
          "name": "_tokenB",
          "type": "address"
        },
        {
          "internalType": "uint256",
          "name": "_amountA",
          "type": "uint256"
        },
        {
          "internalType": "uint256",
          "name": "_amountB",
          "type": "uint256"
        }
      ],
      "name": "addLiquidity",
      "outputs": [],
      "stateMutability": "nonpayable",
      "type": "function"
    },
    {
      "inputs": [
        {
          "internalType": "address",
          "name": "_tokenA",
          "type": "address"
        },
        {
          "internalType": "address",
          "name": "_tokenB",
          "type": "address"
        }
      ],
      "name": "removeLiquidity",
      "outputs": [],
      "stateMutability": "nonpayable",
      "type": "function"
    },
    {
      "inputs": [],
      "name": "uniswapERC20",
      "outputs": [
        {
          "internalType": "contract IUniswapV2ERC20",
          "name": "",
          "type": "address"
        }
      ],
      "stateMutability": "view",
      "type": "function"
    },
    {
      "inputs": [],
      "name": "uniswapFactory",
      "outputs": [
        {
          "internalType": "contract IUniswapV2Factory",
          "name": "",
          "type": "address"
        }
      ],
      "stateMutability": "view",
      "type": "function"
    },
    {
      "inputs": [],
      "name": "uniswapV2Router",
      "outputs": [
        {
          "internalType": "contract IUniswapV2Router",
          "name": "",
          "type": "address"
        }
      ],
      "stateMutability": "view",
      "type": "function"
    }
  ],
  "bytecode": "0x6080604052600080546001600160a01b031990811673ece5022b744d87071fe96e599cc4bebc977bc260908117909255600180548216737a250d5630b4cf539739df2c5dacb4c659f2488d179055600280548216735c69bee701ef814a2b6a3edd4b1652cb9cc5aa6f17905560038054909116909117905534801561008357600080fd5b506108ad806100936000396000f3fe608060405234801561001057600080fd5b50600436106100575760003560e01c80631694505e1461005c5780633e7aa2681461008b5780638bdb2afa1461009e5780639cf38f7c146100b1578063cf6c62ea146100c6575b600080fd5b60015461006f906001600160a01b031681565b6040516001600160a01b03909116815260200160405180910390f35b60035461006f906001600160a01b031681565b60025461006f906001600160a01b031681565b6100c46100bf366004610727565b6100d9565b005b6100c46100d4366004610760565b610395565b60405163e6a4390560e01b81526001600160a01b03808416600483015282166024820152600090735c69bee701ef814a2b6a3edd4b1652cb9cc5aa6f9063e6a4390590604401602060405180830381865afa15801561013c573d6000803e3d6000fd5b505050506040513d601f19601f8201168201806040525081019061016091906107a6565b6040516370a0823160e01b81523060048201529091506000906001600160a01b038316906370a0823190602401602060405180830381865afa1580156101aa573d6000803e3d6000fd5b505050506040513d601f19601f820116820180604052508101906101ce91906107ca565b60405163095ea7b360e01b8152737a250d5630b4cf539739df2c5dacb4c659f2488d6004820152602481018290529091506001600160a01b0383169063095ea7b3906044016020604051808303816000875af1158015610232573d6000803e3d6000fd5b505050506040513d601f19601f8201168201806040525081019061025691906107e3565b50604051635d5155ef60e11b81526001600160a01b038086166004830152841660248201526044810182905260016064820181905260848201523060a48201524260c48201526000908190737a250d5630b4cf539739df2c5dacb4c659f2488d9063baa2abde9060e40160408051808303816000875af11580156102de573d6000803e3d6000fd5b505050506040513d601f19601f820116820180604052508101906103029190610805565b91509150600080516020610858833981519152826040516103479190604080825260079082015266616d6f756e744160c81b6060820152602081019190915260800190565b60405180910390a1604080518181526007818301526630b6b7bab73a2160c91b60608201526020810183905290516000805160206108588339815191529181900360800190a1505050505050565b6040516323b872dd60e01b8152336004820152306024820152604481018390526001600160a01b038516906323b872dd906064016020604051808303816000875af11580156103e8573d6000803e3d6000fd5b505050506040513d601f19601f8201168201806040525081019061040c91906107e3565b506040516323b872dd60e01b8152336004820152306024820152604481018290526001600160a01b038416906323b872dd906064016020604051808303816000875af1158015610460573d6000803e3d6000fd5b505050506040513d601f19601f8201168201806040525081019061048491906107e3565b5060405163095ea7b360e01b8152737a250d5630b4cf539739df2c5dacb4c659f2488d6004820152602481018390526001600160a01b0385169063095ea7b3906044016020604051808303816000875af11580156104e6573d6000803e3d6000fd5b505050506040513d601f19601f8201168201806040525081019061050a91906107e3565b5060405163095ea7b360e01b8152737a250d5630b4cf539739df2c5dacb4c659f2488d6004820152602481018290526001600160a01b0384169063095ea7b3906044016020604051808303816000875af115801561056c573d6000803e3d6000fd5b505050506040513d601f19601f8201168201806040525081019061059091906107e3565b506001805460405162e8e33760e81b81526001600160a01b038781166004830152868116602483015260448201869052606482018590526084820184905260a48201939093523060c48201524260e48201526000928392839291169063e8e3370090610104016060604051808303816000875af1158015610615573d6000803e3d6000fd5b505050506040513d601f19601f820116820180604052508101906106399190610829565b925092509250600080516020610858833981519152836040516106809190604080825260079082015266616d6f756e744160c81b6060820152602081019190915260800190565b60405180910390a1604080518181526007818301526630b6b7bab73a2160c91b60608201526020810184905290516000805160206108588339815191529181900360800190a160408051818152600981830152686c697175696469747960b81b60608201526020810183905290516000805160206108588339815191529181900360800190a150505050505050565b6001600160a01b038116811461072457600080fd5b50565b6000806040838503121561073a57600080fd5b82356107458161070f565b915060208301356107558161070f565b809150509250929050565b6000806000806080858703121561077657600080fd5b84356107818161070f565b935060208501356107918161070f565b93969395505050506040820135916060013590565b6000602082840312156107b857600080fd5b81516107c38161070f565b9392505050565b6000602082840312156107dc57600080fd5b5051919050565b6000602082840312156107f557600080fd5b815180151581146107c357600080fd5b6000806040838503121561081857600080fd5b505080516020909101519092909150565b60008060006060848603121561083e57600080fd5b835192506020840151915060408401519050925092509256fedd970dd9b5bfe707922155b058a407655cb18288b807e2216442bca8ad83d6b5a264697066735822122097d0b4f380557efd99e042781f3bbde99035901f1396f293295ea2a986042b2464736f6c63430008110033",
  "linkReferences": {},
  "deployedLinkReferences": {}
}