{
  "_format": "hh-sol-artifact-1",
  "contractName": "TestUniswapLiquidity",
  "sourceName": "contracts/liquidity.sol",
  "abi": [
    {
      "anonymous": false,
      "inputs": [
        {
          "indexed": false,
          "internalType": "string",
          "name": "message",
          "type": "string"
        },
        {
          "indexed": false,
          "internalType": "uint256",
          "name": "val",
          "type": "uint256"
        }
      ],
      "name": "Log",
      "type": "event"
    },
    {
      "inputs": [],
      "name": "UniswapERC20",
      "outputs": [
        {
          "internalType": "contract IUniswapV2ERC20",
          "name": "",
          "type": "address"
        }
      ],
      "stateMutability": "view",
      "type": "function"
    },
    {
      "inputs": [],
      "name": "UniswapFactory",
      "outputs": [
        {
          "internalType": "contract IUniswapV2Factory",
          "name": "",
          "type": "address"
        }
      ],
      "stateMutability": "view",
      "type": "function"
    },
    {
      "inputs": [],
      "name": "UniswapV2Router",
      "outputs": [
        {
          "internalType": "contract IUniswapV2Router",
          "name": "",
          "type": "address"
        }
      ],
      "stateMutability": "view",
      "type": "function"
    },
    {
      "inputs": [
        {
          "internalType": "address",
          "name": "_tokenA",
          "type": "address"
        },
        {
          "internalType": "address",
          "name": "_tokenB",
          "type": "address"
        },
        {
          "internalType": "uint256",
          "name": "_amountA",
          "type": "uint256"
        },
        {
          "internalType": "uint256",
          "name": "_amountB",
          "type": "uint256"
        }
      ],
      "name": "_addLiquidity",
      "outputs": [],
      "stateMutability": "nonpayable",
      "type": "function"
    },
    {
      "inputs": [
        {
          "internalType": "address",
          "name": "_tokenA",
          "type": "address"
        },
        {
          "internalType": "address",
          "name": "_tokenB",
          "type": "address"
        }
      ],
      "name": "removeLiquidity",
      "outputs": [],
      "stateMutability": "nonpayable",
      "type": "function"
    }
  ],
  "bytecode": "0x608060405273ece5022b744d87071fe96e599cc4bebc977bc2606000806101000a81548173ffffffffffffffffffffffffffffffffffffffff021916908373ffffffffffffffffffffffffffffffffffffffff160217905550737a250d5630b4cf539739df2c5dacb4c659f2488d600160006101000a81548173ffffffffffffffffffffffffffffffffffffffff021916908373ffffffffffffffffffffffffffffffffffffffff160217905550735c69bee701ef814a2b6a3edd4b1652cb9cc5aa6f600260006101000a81548173ffffffffffffffffffffffffffffffffffffffff021916908373ffffffffffffffffffffffffffffffffffffffff16021790555060008054906101000a900473ffffffffffffffffffffffffffffffffffffffff16600360006101000a81548173ffffffffffffffffffffffffffffffffffffffff021916908373ffffffffffffffffffffffffffffffffffffffff16021790555034801561016f57600080fd5b50610ef98061017f6000396000f3fe608060405234801561001057600080fd5b50600436106100575760003560e01c8063055add0d1461005c578063363ebf491461007a5780634f38d6661461009857806377619ac5146100b65780639cf38f7c146100d2575b600080fd5b6100646100ee565b604051610071919061082b565b60405180910390f35b610082610114565b60405161008f9190610867565b60405180910390f35b6100a061013a565b6040516100ad91906108a3565b60405180910390f35b6100d060048036038101906100cb9190610937565b610160565b005b6100ec60048036038101906100e7919061099e565b6104ee565b005b600160009054906101000a900473ffffffffffffffffffffffffffffffffffffffff1681565b600360009054906101000a900473ffffffffffffffffffffffffffffffffffffffff1681565b600260009054906101000a900473ffffffffffffffffffffffffffffffffffffffff1681565b8373ffffffffffffffffffffffffffffffffffffffff166323b872dd3330856040518463ffffffff1660e01b815260040161019d939291906109fc565b6020604051808303816000875af11580156101bc573d6000803e3d6000fd5b505050506040513d601f19601f820116820180604052508101906101e09190610a6b565b508273ffffffffffffffffffffffffffffffffffffffff166323b872dd3330846040518463ffffffff1660e01b815260040161021e939291906109fc565b6020604051808303816000875af115801561023d573d6000803e3d6000fd5b505050506040513d601f19601f820116820180604052508101906102619190610a6b565b508373ffffffffffffffffffffffffffffffffffffffff1663095ea7b3737a250d5630b4cf539739df2c5dacb4c659f2488d846040518363ffffffff1660e01b81526004016102b1929190610a98565b6020604051808303816000875af11580156102d0573d6000803e3d6000fd5b505050506040513d601f19601f820116820180604052508101906102f49190610a6b565b508273ffffffffffffffffffffffffffffffffffffffff1663095ea7b3737a250d5630b4cf539739df2c5dacb4c659f2488d836040518363ffffffff1660e01b8152600401610344929190610a98565b6020604051808303816000875af1158015610363573d6000803e3d6000fd5b505050506040513d601f19601f820116820180604052508101906103879190610a6b565b506000806000600160009054906101000a900473ffffffffffffffffffffffffffffffffffffffff1673ffffffffffffffffffffffffffffffffffffffff1663e8e337008888888860018030426040518963ffffffff1660e01b81526004016103f7989796959493929190610afc565b6060604051808303816000875af1158015610416573d6000803e3d6000fd5b505050506040513d601f19601f8201168201806040525081019061043a9190610b8f565b9250925092507fdd970dd9b5bfe707922155b058a407655cb18288b807e2216442bca8ad83d6b58360405161046f9190610c3f565b60405180910390a17fdd970dd9b5bfe707922155b058a407655cb18288b807e2216442bca8ad83d6b5826040516104a69190610cb9565b60405180910390a17fdd970dd9b5bfe707922155b058a407655cb18288b807e2216442bca8ad83d6b5816040516104dd9190610d33565b60405180910390a150505050505050565b6000735c69bee701ef814a2b6a3edd4b1652cb9cc5aa6f73ffffffffffffffffffffffffffffffffffffffff1663e6a4390584846040518363ffffffff1660e01b815260040161053f929190610d61565b602060405180830381865afa15801561055c573d6000803e3d6000fd5b505050506040513d601f19601f820116820180604052508101906105809190610d9f565b905060008173ffffffffffffffffffffffffffffffffffffffff166370a08231306040518263ffffffff1660e01b81526004016105bd9190610dcc565b602060405180830381865afa1580156105da573d6000803e3d6000fd5b505050506040513d601f19601f820116820180604052508101906105fe9190610de7565b90508173ffffffffffffffffffffffffffffffffffffffff1663095ea7b3737a250d5630b4cf539739df2c5dacb4c659f2488d836040518363ffffffff1660e01b815260040161064f929190610a98565b6020604051808303816000875af115801561066e573d6000803e3d6000fd5b505050506040513d601f19601f820116820180604052508101906106929190610a6b565b50600080737a250d5630b4cf539739df2c5dacb4c659f2488d73ffffffffffffffffffffffffffffffffffffffff1663baa2abde87878660018030426040518863ffffffff1660e01b81526004016106f09796959493929190610e14565b60408051808303816000875af115801561070e573d6000803e3d6000fd5b505050506040513d601f19601f820116820180604052508101906107329190610e83565b915091507fdd970dd9b5bfe707922155b058a407655cb18288b807e2216442bca8ad83d6b5826040516107659190610c3f565b60405180910390a17fdd970dd9b5bfe707922155b058a407655cb18288b807e2216442bca8ad83d6b58160405161079c9190610cb9565b60405180910390a1505050505050565b600073ffffffffffffffffffffffffffffffffffffffff82169050919050565b6000819050919050565b60006107f16107ec6107e7846107ac565b6107cc565b6107ac565b9050919050565b6000610803826107d6565b9050919050565b6000610815826107f8565b9050919050565b6108258161080a565b82525050565b6000602082019050610840600083018461081c565b92915050565b6000610851826107f8565b9050919050565b61086181610846565b82525050565b600060208201905061087c6000830184610858565b92915050565b600061088d826107f8565b9050919050565b61089d81610882565b82525050565b60006020820190506108b86000830184610894565b92915050565b600080fd5b60006108ce826107ac565b9050919050565b6108de816108c3565b81146108e957600080fd5b50565b6000813590506108fb816108d5565b92915050565b6000819050919050565b61091481610901565b811461091f57600080fd5b50565b6000813590506109318161090b565b92915050565b60008060008060808587031215610951576109506108be565b5b600061095f878288016108ec565b9450506020610970878288016108ec565b935050604061098187828801610922565b925050606061099287828801610922565b91505092959194509250565b600080604083850312156109b5576109b46108be565b5b60006109c3858286016108ec565b92505060206109d4858286016108ec565b9150509250929050565b6109e7816108c3565b82525050565b6109f681610901565b82525050565b6000606082019050610a1160008301866109de565b610a1e60208301856109de565b610a2b60408301846109ed565b949350505050565b60008115159050919050565b610a4881610a33565b8114610a5357600080fd5b50565b600081519050610a6581610a3f565b92915050565b600060208284031215610a8157610a806108be565b5b6000610a8f84828501610a56565b91505092915050565b6000604082019050610aad60008301856109de565b610aba60208301846109ed565b9392505050565b6000819050919050565b6000610ae6610ae1610adc84610ac1565b6107cc565b610901565b9050919050565b610af681610acb565b82525050565b600061010082019050610b12600083018b6109de565b610b1f602083018a6109de565b610b2c60408301896109ed565b610b3960608301886109ed565b610b466080830187610aed565b610b5360a0830186610aed565b610b6060c08301856109de565b610b6d60e08301846109ed565b9998505050505050505050565b600081519050610b898161090b565b92915050565b600080600060608486031215610ba857610ba76108be565b5b6000610bb686828701610b7a565b9350506020610bc786828701610b7a565b9250506040610bd886828701610b7a565b9150509250925092565b600082825260208201905092915050565b7f616d6f756e744100000000000000000000000000000000000000000000000000600082015250565b6000610c29600783610be2565b9150610c3482610bf3565b602082019050919050565b60006040820190508181036000830152610c5881610c1c565b9050610c6760208301846109ed565b92915050565b7f616d6f756e744200000000000000000000000000000000000000000000000000600082015250565b6000610ca3600783610be2565b9150610cae82610c6d565b602082019050919050565b60006040820190508181036000830152610cd281610c96565b9050610ce160208301846109ed565b92915050565b7f6c69717569646974790000000000000000000000000000000000000000000000600082015250565b6000610d1d600983610be2565b9150610d2882610ce7565b602082019050919050565b60006040820190508181036000830152610d4c81610d10565b9050610d5b60208301846109ed565b92915050565b6000604082019050610d7660008301856109de565b610d8360208301846109de565b9392505050565b600081519050610d99816108d5565b92915050565b600060208284031215610db557610db46108be565b5b6000610dc384828501610d8a565b91505092915050565b6000602082019050610de160008301846109de565b92915050565b600060208284031215610dfd57610dfc6108be565b5b6000610e0b84828501610b7a565b91505092915050565b600060e082019050610e29600083018a6109de565b610e3660208301896109de565b610e4360408301886109ed565b610e506060830187610aed565b610e5d6080830186610aed565b610e6a60a08301856109de565b610e7760c08301846109ed565b98975050505050505050565b60008060408385031215610e9a57610e996108be565b5b6000610ea885828601610b7a565b9250506020610eb985828601610b7a565b915050925092905056fea2646970667358221220f13ed9d4266785e9d891044972317c6b51cbfd0a0d7a43159ae6e1687f05511664736f6c63430008110033",
  "linkReferences": {},
  "deployedLinkReferences": {}
}